{
  "contractName": "NFToken",
  "abi": [
    {
      "inputs": [],
      "payable": false,
      "stateMutability": "nonpayable",
      "type": "constructor"
    },
    {
      "anonymous": false,
      "inputs": [
        {
          "indexed": true,
          "internalType": "address",
          "name": "_owner",
          "type": "address"
        },
        {
          "indexed": true,
          "internalType": "address",
          "name": "_approved",
          "type": "address"
        },
        {
          "indexed": true,
          "internalType": "uint256",
          "name": "_tokenId",
          "type": "uint256"
        }
      ],
      "name": "Approval",
      "type": "event"
    },
    {
      "anonymous": false,
      "inputs": [
        {
          "indexed": true,
          "internalType": "address",
          "name": "_owner",
          "type": "address"
        },
        {
          "indexed": true,
          "internalType": "address",
          "name": "_operator",
          "type": "address"
        },
        {
          "indexed": false,
          "internalType": "bool",
          "name": "_approved",
          "type": "bool"
        }
      ],
      "name": "ApprovalForAll",
      "type": "event"
    },
    {
      "anonymous": false,
      "inputs": [
        {
          "indexed": true,
          "internalType": "address",
          "name": "_from",
          "type": "address"
        },
        {
          "indexed": true,
          "internalType": "address",
          "name": "_to",
          "type": "address"
        },
        {
          "indexed": true,
          "internalType": "uint256",
          "name": "_tokenId",
          "type": "uint256"
        }
      ],
      "name": "Transfer",
      "type": "event"
    },
    {
      "anonymous": false,
      "inputs": [
        {
          "indexed": true,
          "internalType": "address",
          "name": "sender",
          "type": "address"
        },
        {
          "indexed": true,
          "internalType": "address",
          "name": "receiver",
          "type": "address"
        },
        {
          "indexed": true,
          "internalType": "uint256",
          "name": "token",
          "type": "uint256"
        }
      ],
      "name": "logg",
      "type": "event"
    },
    {
      "anonymous": false,
      "inputs": [
        {
          "indexed": true,
          "internalType": "uint256",
          "name": "length",
          "type": "uint256"
        },
        {
          "indexed": true,
          "internalType": "uint256",
          "name": "flagg",
          "type": "uint256"
        },
        {
          "indexed": true,
          "internalType": "uint256",
          "name": "tokenid",
          "type": "uint256"
        }
      ],
      "name": "logtt",
      "type": "event"
    },
    {
      "anonymous": false,
      "inputs": [
        {
          "indexed": false,
          "internalType": "uint256",
          "name": "tokenid",
          "type": "uint256"
        },
        {
          "indexed": false,
          "internalType": "address",
          "name": "lek",
          "type": "address"
        },
        {
          "indexed": false,
          "internalType": "address",
          "name": "lekshmi",
          "type": "address"
        },
        {
          "indexed": false,
          "internalType": "uint256",
          "name": "i",
          "type": "uint256"
        }
      ],
      "name": "val",
      "type": "event"
    },
    {
      "constant": true,
      "inputs": [],
      "name": "lek",
      "outputs": [
        {
          "internalType": "address",
          "name": "",
          "type": "address"
        }
      ],
      "payable": false,
      "stateMutability": "view",
      "type": "function"
    },
    {
      "constant": true,
      "inputs": [
        {
          "internalType": "bytes4",
          "name": "_interfaceID",
          "type": "bytes4"
        }
      ],
      "name": "supportsInterface",
      "outputs": [
        {
          "internalType": "bool",
          "name": "",
          "type": "bool"
        }
      ],
      "payable": false,
      "stateMutability": "view",
      "type": "function"
    },
    {
      "constant": true,
      "inputs": [
        {
          "internalType": "uint256",
          "name": "",
          "type": "uint256"
        }
      ],
      "name": "tokens",
      "outputs": [
        {
          "internalType": "uint256",
          "name": "",
          "type": "uint256"
        }
      ],
      "payable": false,
      "stateMutability": "view",
      "type": "function"
    },
    {
      "constant": true,
      "inputs": [
        {
          "internalType": "address",
          "name": "_owner",
          "type": "address"
        }
      ],
      "name": "balanceOf",
      "outputs": [
        {
          "internalType": "uint256",
          "name": "",
          "type": "uint256"
        }
      ],
      "payable": false,
      "stateMutability": "view",
      "type": "function"
    },
    {
      "constant": true,
      "inputs": [
        {
          "internalType": "uint256",
          "name": "_tokenId",
          "type": "uint256"
        }
      ],
      "name": "ownerOf",
      "outputs": [
        {
          "internalType": "address",
          "name": "_owner",
          "type": "address"
        }
      ],
      "payable": false,
      "stateMutability": "view",
      "type": "function"
    },
    {
      "constant": false,
      "inputs": [
        {
          "internalType": "address",
          "name": "_from",
          "type": "address"
        },
        {
          "internalType": "address",
          "name": "_to",
          "type": "address"
        },
        {
          "internalType": "uint256",
          "name": "_nbonds",
          "type": "uint256"
        }
      ],
      "name": "safe",
      "outputs": [],
      "payable": false,
      "stateMutability": "nonpayable",
      "type": "function"
    },
    {
      "constant": false,
      "inputs": [
        {
          "internalType": "address",
          "name": "_from",
          "type": "address"
        },
        {
          "internalType": "address",
          "name": "_to",
          "type": "address"
        },
        {
          "internalType": "uint256",
          "name": "_tokenId",
          "type": "uint256"
        }
      ],
      "name": "safeTransferFrom",
      "outputs": [],
      "payable": false,
      "stateMutability": "nonpayable",
      "type": "function"
    },
    {
      "constant": false,
      "inputs": [
        {
          "internalType": "address",
          "name": "_from",
          "type": "address"
        },
        {
          "internalType": "address",
          "name": "_to",
          "type": "address"
        },
        {
          "internalType": "uint256",
          "name": "_tokenId",
          "type": "uint256"
        },
        {
          "internalType": "bytes",
          "name": "_data",
          "type": "bytes"
        }
      ],
      "name": "safeTransferFrom",
      "outputs": [],
      "payable": false,
      "stateMutability": "nonpayable",
      "type": "function"
    },
    {
      "constant": false,
      "inputs": [
        {
          "internalType": "address",
          "name": "_from",
          "type": "address"
        },
        {
          "internalType": "address",
          "name": "_to",
          "type": "address"
        },
        {
          "internalType": "uint256",
          "name": "_tokenId",
          "type": "uint256"
        }
      ],
      "name": "transferFrom",
      "outputs": [],
      "payable": false,
      "stateMutability": "nonpayable",
      "type": "function"
    },
    {
      "constant": false,
      "inputs": [
        {
          "internalType": "address",
          "name": "_approved",
          "type": "address"
        },
        {
          "internalType": "uint256",
          "name": "_tokenId",
          "type": "uint256"
        }
      ],
      "name": "approve",
      "outputs": [],
      "payable": false,
      "stateMutability": "nonpayable",
      "type": "function"
    },
    {
      "constant": false,
      "inputs": [
        {
          "internalType": "address",
          "name": "_operator",
          "type": "address"
        },
        {
          "internalType": "bool",
          "name": "_approved",
          "type": "bool"
        }
      ],
      "name": "setApprovalForAll",
      "outputs": [],
      "payable": false,
      "stateMutability": "nonpayable",
      "type": "function"
    },
    {
      "constant": true,
      "inputs": [
        {
          "internalType": "uint256",
          "name": "_tokenId",
          "type": "uint256"
        }
      ],
      "name": "getApproved",
      "outputs": [
        {
          "internalType": "address",
          "name": "",
          "type": "address"
        }
      ],
      "payable": false,
      "stateMutability": "view",
      "type": "function"
    },
    {
      "constant": true,
      "inputs": [
        {
          "internalType": "address",
          "name": "_owner",
          "type": "address"
        },
        {
          "internalType": "address",
          "name": "_operator",
          "type": "address"
        }
      ],
      "name": "isApprovedForAll",
      "outputs": [
        {
          "internalType": "bool",
          "name": "",
          "type": "bool"
        }
      ],
      "payable": false,
      "stateMutability": "view",
      "type": "function"
    },
    {
      "constant": false,
      "inputs": [
        {
          "internalType": "address",
          "name": "_from",
          "type": "address"
        }
      ],
      "name": "_safe5",
      "outputs": [
        {
          "internalType": "uint256",
          "name": "",
          "type": "uint256"
        }
      ],
      "payable": false,
      "stateMutability": "nonpayable",
      "type": "function"
    },
    {
      "constant": false,
      "inputs": [
        {
          "internalType": "address",
          "name": "_owner",
          "type": "address"
        }
      ],
      "name": "getAllTokens",
      "outputs": [
        {
          "internalType": "uint256[]",
          "name": "",
          "type": "uint256[]"
        }
      ],
      "payable": false,
      "stateMutability": "nonpayable",
      "type": "function"
    }
  ],
  "bytecode": "0x6080604052732d617c3b6679113219c98c8efa58074fb4da251b600a60006101000a81548173ffffffffffffffffffffffffffffffffffffffff021916908373ffffffffffffffffffffffffffffffffffffffff16021790555034801561006557600080fd5b5060016000806301ffc9a760e01b7bffffffffffffffffffffffffffffffffffffffffffffffffffffffff1916815260200190815260200160002060006101000a81548160ff02191690831515021790555060016000806380ac58cd60e01b7bffffffffffffffffffffffffffffffffffffffffffffffffffffffff1916815260200190815260200160002060006101000a81548160ff0219169083151502179055506118b9806101176000396000f3fe608060405234801561001057600080fd5b50600436106100f55760003560e01c8063620348f11161009757806397bddb2f1161006657806397bddb2f1461053a578063a22cb465146105a8578063b88d4fde146105f8578063e985e9c5146106bb576100f5565b8063620348f1146103d25780636352211e1461042a57806370a08231146104985780638caecbb7146104f0576100f5565b8063178b6de6116100d3578063178b6de61461021b57806323b872dd146102b457806342842e0e146103225780634f64b2be14610390576100f5565b806301ffc9a7146100fa578063081812fc1461015f578063095ea7b3146101cd575b600080fd5b6101456004803603602081101561011057600080fd5b8101908080357bffffffffffffffffffffffffffffffffffffffffffffffffffffffff19169060200190929190505050610737565b604051808215151515815260200191505060405180910390f35b61018b6004803603602081101561017557600080fd5b810190808035906020019092919050505061079e565b604051808273ffffffffffffffffffffffffffffffffffffffff1673ffffffffffffffffffffffffffffffffffffffff16815260200191505060405180910390f35b610219600480360360408110156101e357600080fd5b81019080803573ffffffffffffffffffffffffffffffffffffffff1690602001909291908035906020019092919050505061084a565b005b61025d6004803603602081101561023157600080fd5b81019080803573ffffffffffffffffffffffffffffffffffffffff169060200190929190505050610ae0565b6040518080602001828103825283818151815260200191508051906020019060200280838360005b838110156102a0578082015181840152602081019050610285565b505050509050019250505060405180910390f35b610320600480360360608110156102ca57600080fd5b81019080803573ffffffffffffffffffffffffffffffffffffffff169060200190929190803573ffffffffffffffffffffffffffffffffffffffff16906020019092919080359060200190929190505050610b77565b005b61038e6004803603606081101561033857600080fd5b81019080803573ffffffffffffffffffffffffffffffffffffffff169060200190929190803573ffffffffffffffffffffffffffffffffffffffff16906020019092919080359060200190929190505050610c32565b005b6103bc600480360360208110156103a657600080fd5b8101908080359060200190929190505050610c52565b6040518082815260200191505060405180910390f35b610414600480360360208110156103e857600080fd5b81019080803573ffffffffffffffffffffffffffffffffffffffff169060200190929190505050610c73565b6040518082815260200191505060405180910390f35b6104566004803603602081101561044057600080fd5b8101908080359060200190929190505050610d76565b604051808273ffffffffffffffffffffffffffffffffffffffff1673ffffffffffffffffffffffffffffffffffffffff16815260200191505060405180910390f35b6104da600480360360208110156104ae57600080fd5b81019080803573ffffffffffffffffffffffffffffffffffffffff169060200190929190505050610ded565b6040518082815260200191505060405180910390f35b6104f8610e6f565b604051808273ffffffffffffffffffffffffffffffffffffffff1673ffffffffffffffffffffffffffffffffffffffff16815260200191505060405180910390f35b6105a66004803603606081101561055057600080fd5b81019080803573ffffffffffffffffffffffffffffffffffffffff169060200190929190803573ffffffffffffffffffffffffffffffffffffffff16906020019092919080359060200190929190505050610e95565b005b6105f6600480360360408110156105be57600080fd5b81019080803573ffffffffffffffffffffffffffffffffffffffff169060200190929190803515159060200190929190505050610ea5565b005b6106b96004803603608081101561060e57600080fd5b81019080803573ffffffffffffffffffffffffffffffffffffffff169060200190929190803573ffffffffffffffffffffffffffffffffffffffff169060200190929190803590602001909291908035906020019064010000000081111561067557600080fd5b82018360208201111561068757600080fd5b803590602001918460018302840111640100000000831117156106a957600080fd5b9091929391929390505050610eb3565b005b61071d600480360360408110156106d157600080fd5b81019080803573ffffffffffffffffffffffffffffffffffffffff169060200190929190803573ffffffffffffffffffffffffffffffffffffffff169060200190929190505050610f0a565b604051808215151515815260200191505060405180910390f35b6000806000837bffffffffffffffffffffffffffffffffffffffffffffffffffffffff19167bffffffffffffffffffffffffffffffffffffffffffffffffffffffff1916815260200190815260200160002060009054906101000a900460ff169050919050565b600081600073ffffffffffffffffffffffffffffffffffffffff166001600083815260200190815260200160002060009054906101000a900473ffffffffffffffffffffffffffffffffffffffff1673ffffffffffffffffffffffffffffffffffffffff16141561080e57600080fd5b6005600084815260200190815260200160002060009054906101000a900473ffffffffffffffffffffffffffffffffffffffff16915050919050565b8060006001600083815260200190815260200160002060009054906101000a900473ffffffffffffffffffffffffffffffffffffffff1690503373ffffffffffffffffffffffffffffffffffffffff168173ffffffffffffffffffffffffffffffffffffffff1614806109435750600860008273ffffffffffffffffffffffffffffffffffffffff1673ffffffffffffffffffffffffffffffffffffffff16815260200190815260200160002060003373ffffffffffffffffffffffffffffffffffffffff1673ffffffffffffffffffffffffffffffffffffffff16815260200190815260200160002060009054906101000a900460ff165b61094c57600080fd5b82600073ffffffffffffffffffffffffffffffffffffffff166001600083815260200190815260200160002060009054906101000a900473ffffffffffffffffffffffffffffffffffffffff1673ffffffffffffffffffffffffffffffffffffffff1614156109ba57600080fd5b60006001600086815260200190815260200160002060009054906101000a900473ffffffffffffffffffffffffffffffffffffffff1690508073ffffffffffffffffffffffffffffffffffffffff168673ffffffffffffffffffffffffffffffffffffffff161415610a2b57600080fd5b856005600087815260200190815260200160002060006101000a81548173ffffffffffffffffffffffffffffffffffffffff021916908373ffffffffffffffffffffffffffffffffffffffff160217905550848673ffffffffffffffffffffffffffffffffffffffff168273ffffffffffffffffffffffffffffffffffffffff167f8c5be1e5ebec7d5bd14f71427d1e84f3dd0314c0f7b2291e5b200ac8c7c3b92560405160405180910390a4505050505050565b6060600660008373ffffffffffffffffffffffffffffffffffffffff1673ffffffffffffffffffffffffffffffffffffffff168152602001908152602001600020805480602002602001604051908101604052809291908181526020018280548015610b6b57602002820191906000526020600020905b815481526020019060010190808311610b57575b50505050509050919050565b60006001600083815260200190815260200160002060009054906101000a900473ffffffffffffffffffffffffffffffffffffffff1690508373ffffffffffffffffffffffffffffffffffffffff168173ffffffffffffffffffffffffffffffffffffffff1614610be757600080fd5b600073ffffffffffffffffffffffffffffffffffffffff168373ffffffffffffffffffffffffffffffffffffffff161415610c2157600080fd5b610c2b8383611011565b5050505050565b610c4d838383604051806020016040528060008152506110c3565b505050565b60028181548110610c5f57fe5b906000526020600020016000915090505481565b6000806001600660008573ffffffffffffffffffffffffffffffffffffffff1673ffffffffffffffffffffffffffffffffffffffff168152602001908152602001600020805490500390506000600660008573ffffffffffffffffffffffffffffffffffffffff1673ffffffffffffffffffffffffffffffffffffffff1681526020019081526020016000208281548110610d0a57fe5b90600052602060002001549050600660008573ffffffffffffffffffffffffffffffffffffffff1673ffffffffffffffffffffffffffffffffffffffff168152602001908152602001600020600081548110610d6257fe5b906000526020600020015492505050919050565b60006001600083815260200190815260200160002060009054906101000a900473ffffffffffffffffffffffffffffffffffffffff169050600073ffffffffffffffffffffffffffffffffffffffff168173ffffffffffffffffffffffffffffffffffffffff161415610de857600080fd5b919050565b60008073ffffffffffffffffffffffffffffffffffffffff168273ffffffffffffffffffffffffffffffffffffffff161415610e2857600080fd5b600760008373ffffffffffffffffffffffffffffffffffffffff1673ffffffffffffffffffffffffffffffffffffffff168152602001908152602001600020549050919050565b600a60009054906101000a900473ffffffffffffffffffffffffffffffffffffffff1681565b610ea08383836110d4565b505050565b610eaf8282611278565b5050565b610f0385858585858080601f016020809104026020016040519081016040528093929190818152602001838380828437600081840152601f19601f820116905080830192505050505050506110c3565b5050505050565b60008073ffffffffffffffffffffffffffffffffffffffff168373ffffffffffffffffffffffffffffffffffffffff161415610f4557600080fd5b600073ffffffffffffffffffffffffffffffffffffffff168273ffffffffffffffffffffffffffffffffffffffff161415610f7f57600080fd5b600860008473ffffffffffffffffffffffffffffffffffffffff1673ffffffffffffffffffffffffffffffffffffffff16815260200190815260200160002060008373ffffffffffffffffffffffffffffffffffffffff1673ffffffffffffffffffffffffffffffffffffffff16815260200190815260200160002060009054906101000a900460ff16905092915050565b6000806001600084815260200190815260200160002060009054906101000a900473ffffffffffffffffffffffffffffffffffffffff16905061105481846113b3565b61105e84846116a3565b828473ffffffffffffffffffffffffffffffffffffffff168273ffffffffffffffffffffffffffffffffffffffff167fddf252ad1be2c89b69c2b068fc378daa952ba7f163c4a11628f55a4df523b3ef60405160405180910390a48291505092915050565b6110cd8383611011565b5050505050565b60008090505b8181101561127257600060066000600a60009054906101000a900473ffffffffffffffffffffffffffffffffffffffff1673ffffffffffffffffffffffffffffffffffffffff1673ffffffffffffffffffffffffffffffffffffffff168152602001908152602001600020828154811061115057fe5b906000526020600020015490507f8026a9704efe6321bfec7a15f26b062559b256f7e014486dc1ac9034de32080081600a60009054906101000a900473ffffffffffffffffffffffffffffffffffffffff16866001604051808581526020018473ffffffffffffffffffffffffffffffffffffffff1673ffffffffffffffffffffffffffffffffffffffff1681526020018373ffffffffffffffffffffffffffffffffffffffff1673ffffffffffffffffffffffffffffffffffffffff16815260200182815260200194505050505060405180910390a1611264600a60009054906101000a900473ffffffffffffffffffffffffffffffffffffffff168683604051806020016040528060008152506110c3565b5080806001019150506110da565b50505050565b600073ffffffffffffffffffffffffffffffffffffffff168273ffffffffffffffffffffffffffffffffffffffff1614156112b257600080fd5b80600860003373ffffffffffffffffffffffffffffffffffffffff1673ffffffffffffffffffffffffffffffffffffffff16815260200190815260200160002060008473ffffffffffffffffffffffffffffffffffffffff1673ffffffffffffffffffffffffffffffffffffffff16815260200190815260200160002060006101000a81548160ff0219169083151502179055508173ffffffffffffffffffffffffffffffffffffffff163373ffffffffffffffffffffffffffffffffffffffff167f17307eab39ab6107e8899845ad3d59bd9653f200f220920489ca2b5937696c3183604051808215151515815260200191505060405180910390a35050565b6000600760008473ffffffffffffffffffffffffffffffffffffffff1673ffffffffffffffffffffffffffffffffffffffff16815260200190815260200160002054116113fc57fe5b6001600760008473ffffffffffffffffffffffffffffffffffffffff1673ffffffffffffffffffffffffffffffffffffffff1681526020019081526020016000205403600760008473ffffffffffffffffffffffffffffffffffffffff1673ffffffffffffffffffffffffffffffffffffffff168152602001908152602001600020819055506001600082815260200190815260200160002060006101000a81549073ffffffffffffffffffffffffffffffffffffffff02191690556000600660008473ffffffffffffffffffffffffffffffffffffffff1673ffffffffffffffffffffffffffffffffffffffff168152602001908152602001600020805490501161150457fe5b60006003600083815260200190815260200160002054905060006001600660008673ffffffffffffffffffffffffffffffffffffffff1673ffffffffffffffffffffffffffffffffffffffff168152602001908152602001600020805490500390506000600660008673ffffffffffffffffffffffffffffffffffffffff1673ffffffffffffffffffffffffffffffffffffffff16815260200190815260200160002082815481106115b257fe5b9060005260206000200154905080600660008773ffffffffffffffffffffffffffffffffffffffff1673ffffffffffffffffffffffffffffffffffffffff168152602001908152602001600020848154811061160a57fe5b9060005260206000200181905550600660008673ffffffffffffffffffffffffffffffffffffffff1673ffffffffffffffffffffffffffffffffffffffff16815260200190815260200160002080548091906001900361166a9190611833565b50826003600083815260200190815260200160002081905550600060036000868152602001908152602001600020819055505050505050565b816001600083815260200190815260200160002060006101000a81548173ffffffffffffffffffffffffffffffffffffffff021916908373ffffffffffffffffffffffffffffffffffffffff1602179055506117486001600760008573ffffffffffffffffffffffffffffffffffffffff1673ffffffffffffffffffffffffffffffffffffffff1681526020019081526020016000205461181790919063ffffffff16565b600760008473ffffffffffffffffffffffffffffffffffffffff1673ffffffffffffffffffffffffffffffffffffffff168152602001908152602001600020819055506000600660008473ffffffffffffffffffffffffffffffffffffffff1673ffffffffffffffffffffffffffffffffffffffff16815260200190815260200160002082908060018154018082558091505090600182039060005260206000200160009091929091909150559050600181036003600084815260200190815260200160002081905550505050565b60008082840190508381101561182957fe5b8091505092915050565b81548183558181111561185a57818360005260206000209182019101611859919061185f565b5b505050565b61188191905b8082111561187d576000816000905550600101611865565b5090565b9056fea265627a7a72315820a53f344e0c686cab95c7c0ab9c3c64e4a81ee5177e6402e4d84d0ecb8c90371864736f6c63430005100032",
  "source": "// pragma solidity ^0.4.20;\npragma solidity >=0.4.21 <0.7.0;\n\nimport \"./ERC721.sol\";\nimport \"./ERC721TokenReceiver.sol\";\n\nimport \"../node_modules/@0xcert/ethereum-utils/contracts/math/SafeMath.sol\";\nimport \"../node_modules/@0xcert/ethereum-utils/contracts/utils/SupportsInterface.sol\";\nimport \"../node_modules/@0xcert/ethereum-utils/contracts/utils/AddressUtils.sol\";\n/**\n * @dev Implementation of ERC-721 non-fungible token standard.\n */\ncontract NFToken is\n  ERC721,\n  SupportsInterface\n{\n    using SafeMath for uint256;\n    using AddressUtils for address;\n\n\n    struct tokenidd{\n        uint256 _tokenId;\n    }\n    struct random{\n        uint256[] id;\n    }\n  \n    struct mithuu{\n        uint256[] mitharray;\n    }\n\n    struct addresstoid{\n        uint256 _tokenId;\n    }\n/**\n  * @dev A mapping from NFT ID to the address that owns it.\n*/\n    mapping (uint256 => address) internal idToOwner;\n/**\n  * @dev Array of all NFT IDs.\n*/\n    uint256[] public tokens;\n/**\n  * @dev Mapping from NFT ID to its index in the owner tokens list.\n*/\n    mapping(uint256 => uint256) internal idToOwnerIndex;\n\n/**\n  * @dev Mapping from token ID its index in global tokens array.\n*/\n    mapping(uint256 => uint256) internal idToIndex;\n/**\n  * @dev Mapping from NFT ID to approved address.\n*/\n    mapping (uint256 => address) internal idToApprovals;\n\n/**\n  * @dev Mapping from owner to list of owned NFT IDs.\n*/\n    mapping(address => uint256[]) internal ownerToIds;\n\n/**\n  * @dev Mapping from owner address to count of his tokens.\n*/\n    mapping (address => uint256) internal ownerToNFTokenCount;\n\n/**\n  * @dev Mapping from owner address to mapping of operator addresses.\n*/\n    mapping (address => mapping (address => bool)) internal ownerToOperators;\n\n    mapping(address => addresstoid[]) addressidmapping;\n\n\n/**\n  * @dev Magic value of a smart contract that can recieve NFT.\n  * Equal to: bytes4(keccak256(\"onERC721Received(address,address,uint256,bytes)\")).\n*/\n    bytes4 constant MAGIC_ON_ERC721_RECEIVED = 0x150b7a02;\n\n/**\n  * @dev Emits when ownership of any NFT changes by any mechanism. This event emits when NFTs are\n  * created (`from` == 0) and destroyed (`to` == 0). Exception: during contract creation, any\n  * number of NFTs may be created and assigned without emitting Transfer. At the time of any\n  * transfer, the approved address for that NFT (if any) is reset to none.\n  * @param _from Sender of NFT (if address is zero address it indicates token creation).\n  * @param _to Receiver of NFT (if address is zero address it indicates token destruction).   \n  * @param _tokenId The NFT that got transfered.\n*/\n    event Transfer(\n    address indexed _from,\n    address indexed _to,\n    uint256 indexed _tokenId\n    );\n\n/**\n  * @dev This emits when the approved address for an NFT is changed or reaffirmed. The zero\n  * address indicates there is no approved address. When a Transfer event emits, this also\n  * indicates that the approved address for that NFT (if any) is reset to none.\n  * @param _owner Owner of NFT.\n  * @param _approved Address that we are approving.\n  * @param _tokenId NFT which we are approving.\n*/\n    event Approval(\n    address indexed _owner,\n    address indexed _approved,\n    uint256 indexed _tokenId\n    );\n    event logtt(\n    uint indexed length,\n    uint indexed flagg,\n    uint256 indexed tokenid\n    );\n    event val(\n    uint256  tokenid,\n    address  lek,\n    address  lekshmi,\n    uint  i\n    );\n    event logg(\n    address indexed sender,\n    address indexed receiver,\n    uint256 indexed token\n    );\n/**\n  * @dev This emits when an operator is enabled or disabled for an owner. The operator can manage\n  * all NFTs of the owner.\n  * @param _owner Owner of NFT.\n  * @param _operator Address to which we are setting operator rights.\n  * @param _approved Status of operator rights(true if operator rights are given and false if\n  * revoked).\n*/\n    event ApprovalForAll(\n    address indexed _owner,\n    address indexed _operator,\n    bool _approved\n    );\n\n/**\n  * @dev Guarantees that the msg.sender is an owner or operator of the given NFT.\n  * @param _tokenId ID of the NFT to validate.\n*/\n    modifier canOperate(\n    uint256 _tokenId\n    ) {\n        address tokenOwner = idToOwner[_tokenId];\n        require(tokenOwner == msg.sender || ownerToOperators[tokenOwner][msg.sender]);\n        _;\n    }\n\n/**\n  * @dev Guarantees that the msg.sender is allowed to transfer NFT.\n  * @param _tokenId ID of the NFT to transfer.\n*/\n    modifier canTransfer(\n    uint256 _tokenId\n    ) {\n        address tokenOwner = idToOwner[_tokenId];\n        require(\n            tokenOwner == msg.sender || getApproved(_tokenId) == msg.sender || ownerToOperators[tokenOwner][msg.sender]\n        );\n        _;\n    }\n\n/**\n  * @dev Guarantees that _tokenId is a valid Token.\n  * @param _tokenId ID of the NFT to validate.\n*/\n    modifier validNFToken(\n    uint256 _tokenId\n    ) {\n        require(idToOwner[_tokenId] != address(0));\n        _;\n    }\n\n/**\n  * @dev Contract constructor.\n*/\n    constructor()\n    public\n    {\n        supportedInterfaces[0x80ac58cd] = true; // ERC721\n    }\n\n/**\n  * @dev Returns the number of NFTs owned by `_owner`. NFTs assigned to the zero address are\n  * considered invalid, and this function throws for queries about the zero address.\n  * @param _owner Address for whom to query the balance.\n*/\n    function balanceOf(\n        address _owner\n    )\n    external\n    view\n    returns (uint256)\n    {\n        require(_owner != address(0));\n        return ownerToNFTokenCount[_owner];\n    }\n\n/**\n  * @dev Returns the address of the owner of the NFT. NFTs assigned to zero address are considered\n  * invalid, and queries about them do throw.\n  * @param _tokenId The identifier for an NFT.\n*/\n    function ownerOf(\n        uint256 _tokenId\n    )\n    external\n    view\n    returns (address _owner)\n    {\n        _owner = idToOwner[_tokenId];\n        require(_owner != address(0));\n    }\n\n/**\n  * @dev Transfers the ownership of an NFT from one address to another address.\n  * @notice Throws unless `msg.sender` is the current owner, an authorized operator, or the\n  * approved address for this NFT. Throws if `_from` is not the current owner. Throws if `_to` is\n  * the zero address. Throws if `_tokenId` is not a valid NFT. When transfer is complete, this\n  * function checks if `_to` is a smart contract (code size > 0). If so, it calls `onERC721Received`\n  * on `_to` and throws if the return value is not `bytes4(keccak256(\"onERC721Received(address,uint256,bytes)\"))`.\n  * @param _from The current owner of the NFT.\n  * @param _to The new owner.\n*/\n    \n    function safe(\n        address _from,\n        address _to,\n        uint _nbonds\n \n    )\n    external{\n        _safe(_from,_to,_nbonds);\n    }\n/**\n  * @dev Transfers the ownership of an NFT from one address to another address.\n  * @notice Throws unless `msg.sender` is the current owner, an authorized operator, or the\n  * approved address for this NFT. Throws if `_from` is not the current owner. Throws if `_to` is\n  * the zero address. Throws if `_tokenId` is not a valid NFT. When transfer is complete, this\n  * function checks if `_to` is a smart contract (code size > 0). If so, it calls `onERC721Received`\n  * on `_to` and throws if the return value is not `bytes4(keccak256(\"onERC721Received(address,uint256,bytes)\"))`.\n  * @param _from The current owner of the NFT.\n  * @param _to The new owner.\n  \n*/\n\n    address public lek = 0x2D617C3b6679113219c98c8EfA58074Fb4Da251B;//Master Wallet Address\n\n    function _safe(address _from,address _to,uint _nbonds) internal{\n        for(uint i = 0;i<_nbonds;i++){\n            uint256 k = ownerToIds[lek][i];\n            emit val(k,lek,_to,1);\n            _safeTransferFrom(lek, _from, k,\"\");\n        }\n    }\n\n/**\n  * @dev Transfers the ownership of an NFT from one address to another address.\n  * @notice Throws unless `msg.sender` is the current owner, an authorized operator, or the\n  * approved address for this NFT. Throws if `_from` is not the current owner. Throws if `_to` is\n  * the zero address. Throws if `_tokenId` is not a valid NFT. When transfer is complete, this\n  * function checks if `_to` is a smart contract (code size > 0). If so, it calls `onERC721Received`\n  * on `_to` and throws if the return value is not `bytes4(keccak256(\"onERC721Received(address,uint256,bytes)\"))`.\n  * @param _from The current owner of the NFT.\n  * @param _to The new owner.\n  * @param _tokenId The NFT to transfer.\n  * @param _data Additional data with no specified format, sent in call to `_to`.\n*/\n    function safeTransferFrom(\n        address _from,\n        address _to,\n        uint256 _tokenId,\n        bytes calldata _data\n    )\n    external\n    {\n        _safeTransferFrom(_from, _to, _tokenId, _data);\n    }\n\n/**\n  * @dev Transfers the ownership of an NFT from one address to another address.\n  * @notice This works identically to the other function with an extra data parameter, except this\n  * function just sets data to \"\"\n  * @param _from The current owner of the NFT.\n  * @param _to The new owner.\n  * @param _tokenId The NFT to transfer.\n*/\n    function safeTransferFrom(\n        address _from,\n        address _to,\n        uint256 _tokenId\n    )\n    external\n    {\n        _safeTransferFrom(_from, _to, _tokenId, \"\");\n    }\n\n\n\n/**\n  * @dev Throws unless `msg.sender` is the current owner, an authorized operator, or the approved\n  * address for this NFT. Throws if `_from` is not the current owner. Throws if `_to` is the zero\n  * address. Throws if `_tokenId` is not a valid NFT.\n  * @notice The caller is responsible to confirm that `_to` is capable of receiving NFTs or else\n  * they maybe be permanently lost.\n  * @param _from The current owner of the NFT.\n  * @param _to The new owner.\n  * @param _tokenId The NFT to transfer.\n*/\n    function transferFrom(\n        address _from,\n        address _to,\n        uint256 _tokenId\n    )\n    external\n    {\n        address tokenOwner = idToOwner[_tokenId];\n        require(tokenOwner == _from);\n        require(_to != address(0));\n        _transfer(_to, _tokenId);\n    }\n\n/**\n  * @dev Set or reaffirm the approved address for an NFT.\n  * @notice The zero address indicates there is no approved address. Throws unless `msg.sender` is\n  * the current NFT owner, or an authorized operator of the current owner.\n  * @param _approved Address to be approved for the given NFT ID.\n  * @param _tokenId ID of the token to be approved.\n*/\n    function approve(\n        address _approved,\n        uint256 _tokenId\n    )\n    external\n    canOperate(_tokenId)\n    validNFToken(_tokenId)\n    {\n        address tokenOwner = idToOwner[_tokenId];\n        require(_approved != tokenOwner);\n        idToApprovals[_tokenId] = _approved;\n        emit Approval(tokenOwner, _approved, _tokenId);\n    }\n\n/**\n  * @dev Enables or disables approval for a third party (\"operator\") to manage all of\n  * `msg.sender`'s assets. It also emits the ApprovalForAll event.\n  * @notice This works even if sender doesn't own any tokens at the time.\n  * @param _operator Address to add to the set of authorized operators.\n  * @param _approved True if the operators is approved, false to revoke approval.\n*/\n    function setApprovalForAll(\n        address _operator,\n        bool _approved\n     )\n     external\n    {\n        _setApprovalForAll(_operator,_approved);\n   \n    }\n    function _setApprovalForAll(\n        address _operator,\n        bool _approved\n    )\n    internal\n    {\n        require(_operator != address(0));\n        ownerToOperators[msg.sender][_operator] = _approved;\n        emit ApprovalForAll(msg.sender, _operator, _approved);\n    }\n\n  /**\n   * @dev Get the approved address for a single NFT.\n   * @notice Throws if `_tokenId` is not a valid NFT.\n   * @param _tokenId ID of the NFT to query the approval of.\n   */\n    function getApproved(\n        uint256 _tokenId\n    )\n    public\n    view\n    validNFToken(_tokenId)\n    returns (address)\n    {\n        return idToApprovals[_tokenId];\n    }\n\n  /**\n   * @dev Checks if `_operator` is an approved operator for `_owner`.\n   * @param _owner The address that owns the NFTs.\n   * @param _operator The address that acts on behalf of the owner.\n   */\n    function isApprovedForAll(\n        address _owner,\n        address _operator\n    )\n    external\n    view\n    returns (bool)\n    {\n        require(_owner != address(0));\n        require(_operator != address(0));\n        return ownerToOperators[_owner][_operator];\n    }\n\n  /**\n   * @dev Actually perform the safeTransferFrom.\n   * @param _from The current owner of the NFT.\n   * @param _to The new owner.\n   * @param _tokenId The NFT to transfer.\n   * @param _data Additional data with no specified format, sent in call to `_to`.\n   */\n    function _safeTransferFrom(\n        address _from,\n        address _to,\n        uint256 _tokenId,\n        bytes memory _data\n    )\n    internal \n    {\n    //address tokenOwner = idToOwner[_tokenId];\n    //    require(tokenOwner == _from);\n    //   require(_to != address(0));\n        _transfer(_to, _tokenId);\n    }\n\n  /**\n   * @dev Actually preforms the transfer.\n   * @notice Does NO checks.\n   * @param _to Address of a new owner.\n   * @param _tokenId The NFT that is being transferred.\n   */\n    function _transfer(\n        address _to,\n        uint256 _tokenId\n    )\n    private returns (uint256)\n    {\n    \n        address from = idToOwner[_tokenId];\n        removeNFToken(from, _tokenId);\n        addNFToken(_to, _tokenId);\n        emit Transfer(from, _to, _tokenId);\n        return _tokenId;\n    }\n   \n  /**\n   * @dev Mints a new NFT.\n   * @notice This is a private function which should be called from user-implemented external\n   * mint function. Its purpose is to show and properly initialize data structures when using this\n   * implementation.\n   * @param _to The address that will own the minted NFT.\n   * @param _tokenId of the NFT to be minted by the msg.sender.\n   */\n    function _mint(\n        address _to,\n        uint256 _tokenId\n    )\n    internal\n    {\n        require(_to != address(0));\n        require(_tokenId != 0);\n        require(idToOwner[_tokenId] == address(0));\n        addNFToken(_to, _tokenId);\n        uint256 length = tokens.push(_tokenId);\n        idToIndex[_tokenId] = length - 1;\n        emit Transfer(address(0), _to, _tokenId);\n    }\n\n    function _mint2(\n        address _to,\n        uint256 _tokenId\n    )\n    internal\n    {\n        require(_to != address(0));\n        require(_tokenId != 0);\n        require(idToOwner[_tokenId] == address(0));\n        addNFToken(_to, _tokenId);\n        uint256 length = tokens.push(_tokenId);\n        idToIndex[_tokenId] = length - 1;\n        emit Transfer(address(0), _to, _tokenId);\n    }\n\n    function _getb(\n        address _owner\n    ) internal\n    returns(uint256[] memory ,uint256[] memory)\n    {\n        return (tokens,ownerToIds[_owner]);\n\n    }\n\n  /**\n   * @dev Burns a NFT.\n   * @notice This is a private function which should be called from user-implemented external\n   * burn function. Its purpose is to show and properly initialize data structures when using this\n   * implementation.\n   * @param _owner Address of the NFT owner.\n   * @param _tokenId ID of the NFT to be burned.\n   */\n    function _burn(\n        address _owner,\n        uint256 _tokenId\n    )\n    validNFToken(_tokenId)\n    internal\n    {\n        clearApproval(_tokenId);\n        removeNFToken(_owner, _tokenId);\n        assert(tokens.length > 0);\n        uint256 tokenIndex = idToIndex[_tokenId];\n        // Sanity check. This could be removed in the future.\n        assert(tokens[tokenIndex] == _tokenId);\n        uint256 lastTokenIndex = tokens.length - 1;\n        uint256 lastToken = tokens[lastTokenIndex];\n        tokens[tokenIndex] = lastToken;\n        tokens.length--;\n        // Consider adding a conditional check for the last token in order to save GAS.\n        idToIndex[lastToken] = tokenIndex;\n        idToIndex[_tokenId] = 0;\n        emit Transfer(_owner, address(0), _tokenId);\n    }\n\n  /** \n   * @dev Clears the current approval of a given NFT ID.\n   * @param _tokenId ID of the NFT to be transferred.\n   */\n    function clearApproval(\n        uint256 _tokenId\n    )\n    private\n    {\n        // if(idToApprovals[_tokenId] != 0)\n        // {\n            delete idToApprovals[_tokenId];\n        // }\n    }\n\n  /**\n   * @dev Removes a NFT from owner.\n   * @notice Use and override this function with caution. Wrong usage can have serious consequences.\n   * @param _from Address from wich we want to remove the NFT.\n   * @param _tokenId Which NFT we want to remove.\n   */\n    function removeNFToken(\n        address _from,\n        uint256 _tokenId\n    )\n   internal\n   {\n    //require(idToOwner[_tokenId] == _from);\n        assert(ownerToNFTokenCount[_from] > 0);\n        ownerToNFTokenCount[_from] = ownerToNFTokenCount[_from] - 1;\n        delete idToOwner[_tokenId];\n        assert(ownerToIds[_from].length > 0);\n        uint256 tokenToRemoveIndex = idToOwnerIndex[_tokenId];\n        uint256 lastTokenIndex = ownerToIds[_from].length - 1;\n        uint256 lastToken = ownerToIds[_from][lastTokenIndex];\n        ownerToIds[_from][tokenToRemoveIndex] = lastToken;\n        ownerToIds[_from].length--;\n        // Consider adding a conditional check for the last token in order to save GAS.\n        idToOwnerIndex[lastToken] = tokenToRemoveIndex;\n        idToOwnerIndex[_tokenId] = 0;\n    }\n\n  /**\n   * @dev Assignes a new NFT to owner.\n   * @notice Use and override this function with caution. Wrong usage can have serious consequences.\n   * @param _to Address to wich we want to add the NFT.\n   * @param _tokenId Which NFT we want to add.\n   */\n    function addNFToken(\n        address _to,\n        uint256 _tokenId\n    )\n    internal\n    {\n    //  require(idToOwner[_tokenId] == address(0));\n        idToOwner[_tokenId] = _to;\n        ownerToNFTokenCount[_to] = ownerToNFTokenCount[_to].add(1);\n        uint256 length = ownerToIds[_to].push(_tokenId);\n        idToOwnerIndex[_tokenId] = length - 1;\n    }\n\n\n    //Mithun Code\n    //returning one erc721 token attached to carrier..used in attaching it to a new bol\n    //     function getTokenID(address _owner) internal returns(uint256)\n    // {\n    //     return (ownerToIds[_owner][0]);\n\n    // }\n\n//returns the array of all the tokens attached to a consignee i.e. the bol\n    // function getAllTokens(address _owner) internal returns(uint256[])\n    // {\n    //     return (ownerToIds[_owner]);\n    // }\n\n\n\n    // function getTokenID(\n    //     address _from\n    // )\n    // external\n    // {\n    //     _getTokenID(_from);\n    // }\n\n    // function _getTokenID(\n    //     address _from\n    // )\n    // internal \n    // {\n    //     _getTKID(_from);\n    // }\n\n    // function _getTKID(\n    //     address _from\n    // )\n    // private returns (uint256)\n    // {\n    //     return ownerToIds[_from][0];\n    // }\n\n\n\n\n    // function safe5(\n    //     address _from\n    // )\n    // external{\n    //     _safe5(_from);\n    // }\n\n    // function _safe5(address _from) external returns(uint256){\n    //     uint256 lastTokenIndex = ownerToIds[_from].length - 1;\n    //     uint256 lastToken = ownerToIds[_from][lastTokenIndex];\n    //     return lastToken;\n    // }\n\n    function _safe5(address _from) external returns(uint256){\n        uint256 lastTokenIndex = ownerToIds[_from].length - 1;\n         uint256 lastToken = ownerToIds[_from][lastTokenIndex];\n        return (ownerToIds[_from][0]);\n    }\n\n    function getAllTokens(address _owner) external returns(uint256[] memory)\n    {\n        return ownerToIds[_owner];\n    }\n\n\n}\n",
  "sourcePath": "/home/kottackal/Desktop/Farm/contracts/NFToken.sol",
  "compiler": {
    "name": "solc",
    "version": "0.5.16+commit.9c3226ce.Emscripten.clang"
  },
  "schemaVersion": "3.4.3",
  "updatedAt": "2023-02-14T07:32:17.028Z",
  "devdoc": {
    "details": "Implementation of ERC-721 non-fungible token standard.",
    "methods": {
      "approve(address,uint256)": {
        "details": "Set or reaffirm the approved address for an NFT.",
        "params": {
          "_approved": "Address to be approved for the given NFT ID.",
          "_tokenId": "ID of the token to be approved."
        }
      },
      "balanceOf(address)": {
        "details": "Returns the number of NFTs owned by `_owner`. NFTs assigned to the zero address are considered invalid, and this function throws for queries about the zero address.",
        "params": {
          "_owner": "Address for whom to query the balance."
        }
      },
      "constructor": {
        "details": "Contract constructor."
      },
      "getApproved(uint256)": {
        "details": "Get the approved address for a single NFT.",
        "params": {
          "_tokenId": "ID of the NFT to query the approval of."
        }
      },
      "isApprovedForAll(address,address)": {
        "details": "Checks if `_operator` is an approved operator for `_owner`.",
        "params": {
          "_operator": "The address that acts on behalf of the owner.",
          "_owner": "The address that owns the NFTs."
        }
      },
      "ownerOf(uint256)": {
        "details": "Returns the address of the owner of the NFT. NFTs assigned to zero address are considered invalid, and queries about them do throw.",
        "params": {
          "_tokenId": "The identifier for an NFT."
        }
      },
      "safe(address,address,uint256)": {
        "details": "Transfers the ownership of an NFT from one address to another address.",
        "params": {
          "_from": "The current owner of the NFT.",
          "_to": "The new owner."
        }
      },
      "safeTransferFrom(address,address,uint256)": {
        "details": "Transfers the ownership of an NFT from one address to another address.",
        "params": {
          "_from": "The current owner of the NFT.",
          "_to": "The new owner.",
          "_tokenId": "The NFT to transfer."
        }
      },
      "safeTransferFrom(address,address,uint256,bytes)": {
        "details": "Transfers the ownership of an NFT from one address to another address.",
        "params": {
          "_data": "Additional data with no specified format, sent in call to `_to`.",
          "_from": "The current owner of the NFT.",
          "_to": "The new owner.",
          "_tokenId": "The NFT to transfer."
        }
      },
      "setApprovalForAll(address,bool)": {
        "details": "Enables or disables approval for a third party (\"operator\") to manage all of `msg.sender`'s assets. It also emits the ApprovalForAll event.",
        "params": {
          "_approved": "True if the operators is approved, false to revoke approval.",
          "_operator": "Address to add to the set of authorized operators."
        }
      },
      "supportsInterface(bytes4)": {
        "details": "Function to check which interfaces are suported by this contract.",
        "params": {
          "_interfaceID": "Id of the interface."
        }
      },
      "transferFrom(address,address,uint256)": {
        "details": "Throws unless `msg.sender` is the current owner, an authorized operator, or the approved address for this NFT. Throws if `_from` is not the current owner. Throws if `_to` is the zero address. Throws if `_tokenId` is not a valid NFT.",
        "params": {
          "_from": "The current owner of the NFT.",
          "_to": "The new owner.",
          "_tokenId": "The NFT to transfer."
        }
      }
    }
  },
  "userdoc": {
    "methods": {
      "approve(address,uint256)": {
        "notice": "The zero address indicates there is no approved address. Throws unless `msg.sender` is the current NFT owner, or an authorized operator of the current owner."
      },
      "getApproved(uint256)": {
        "notice": "Throws if `_tokenId` is not a valid NFT."
      },
      "safe(address,address,uint256)": {
        "notice": "Throws unless `msg.sender` is the current owner, an authorized operator, or the approved address for this NFT. Throws if `_from` is not the current owner. Throws if `_to` is the zero address. Throws if `_tokenId` is not a valid NFT. When transfer is complete, this function checks if `_to` is a smart contract (code size > 0). If so, it calls `onERC721Received` on `_to` and throws if the return value is not `bytes4(keccak256(\"onERC721Received(address,uint256,bytes)\"))`."
      },
      "safeTransferFrom(address,address,uint256)": {
        "notice": "This works identically to the other function with an extra data parameter, except this function just sets data to \"\""
      },
      "safeTransferFrom(address,address,uint256,bytes)": {
        "notice": "Throws unless `msg.sender` is the current owner, an authorized operator, or the approved address for this NFT. Throws if `_from` is not the current owner. Throws if `_to` is the zero address. Throws if `_tokenId` is not a valid NFT. When transfer is complete, this function checks if `_to` is a smart contract (code size > 0). If so, it calls `onERC721Received` on `_to` and throws if the return value is not `bytes4(keccak256(\"onERC721Received(address,uint256,bytes)\"))`."
      },
      "setApprovalForAll(address,bool)": {
        "notice": "This works even if sender doesn't own any tokens at the time."
      },
      "transferFrom(address,address,uint256)": {
        "notice": "The caller is responsible to confirm that `_to` is capable of receiving NFTs or else they maybe be permanently lost."
      }
    }
  }
}