{
  "contractName": "RiceCertificate",
  "abi": [
    {
      "constant": true,
      "inputs": [
        {
          "internalType": "uint256",
          "name": "",
          "type": "uint256"
        }
      ],
      "name": "Certified",
      "outputs": [
        {
          "internalType": "uint256",
          "name": "farm_id",
          "type": "uint256"
        },
        {
          "internalType": "string",
          "name": "cname",
          "type": "string"
        },
        {
          "internalType": "uint256",
          "name": "fromyr",
          "type": "uint256"
        },
        {
          "internalType": "uint256",
          "name": "toyr",
          "type": "uint256"
        }
      ],
      "payable": false,
      "stateMutability": "view",
      "type": "function"
    },
    {
      "constant": true,
      "inputs": [
        {
          "internalType": "uint256",
          "name": "",
          "type": "uint256"
        }
      ],
      "name": "Inspect",
      "outputs": [
        {
          "internalType": "uint256",
          "name": "id",
          "type": "uint256"
        },
        {
          "internalType": "uint256",
          "name": "idate",
          "type": "uint256"
        },
        {
          "internalType": "string",
          "name": "iname",
          "type": "string"
        }
      ],
      "payable": false,
      "stateMutability": "view",
      "type": "function"
    },
    {
      "constant": true,
      "inputs": [
        {
          "internalType": "uint256",
          "name": "",
          "type": "uint256"
        }
      ],
      "name": "RiceInfo",
      "outputs": [
        {
          "internalType": "uint256",
          "name": "farm_id",
          "type": "uint256"
        },
        {
          "internalType": "string",
          "name": "crop",
          "type": "string"
        },
        {
          "internalType": "bytes32",
          "name": "extent",
          "type": "bytes32"
        },
        {
          "internalType": "bytes32",
          "name": "previouscrop",
          "type": "bytes32"
        },
        {
          "internalType": "bytes32",
          "name": "protect",
          "type": "bytes32"
        },
        {
          "internalType": "bytes32",
          "name": "manure",
          "type": "bytes32"
        },
        {
          "internalType": "bytes32",
          "name": "seed",
          "type": "bytes32"
        },
        {
          "internalType": "bytes32",
          "name": "soiltype",
          "type": "bytes32"
        }
      ],
      "payable": false,
      "stateMutability": "view",
      "type": "function"
    },
    {
      "constant": true,
      "inputs": [
        {
          "internalType": "uint256",
          "name": "",
          "type": "uint256"
        }
      ],
      "name": "RiceMap",
      "outputs": [
        {
          "internalType": "uint256",
          "name": "farm_id",
          "type": "uint256"
        },
        {
          "internalType": "string",
          "name": "farm_owner",
          "type": "string"
        },
        {
          "internalType": "bytes32",
          "name": "farmeraddress",
          "type": "bytes32"
        },
        {
          "internalType": "bytes32",
          "name": "place",
          "type": "bytes32"
        },
        {
          "internalType": "bytes32",
          "name": "requirement",
          "type": "bytes32"
        },
        {
          "internalType": "bytes32",
          "name": "standard",
          "type": "bytes32"
        },
        {
          "internalType": "address",
          "name": "acc",
          "type": "address"
        },
        {
          "internalType": "bytes32",
          "name": "status",
          "type": "bytes32"
        }
      ],
      "payable": false,
      "stateMutability": "view",
      "type": "function"
    },
    {
      "constant": true,
      "inputs": [],
      "name": "countApplication",
      "outputs": [
        {
          "internalType": "uint256",
          "name": "",
          "type": "uint256"
        }
      ],
      "payable": false,
      "stateMutability": "view",
      "type": "function"
    },
    {
      "constant": true,
      "inputs": [
        {
          "internalType": "uint256",
          "name": "",
          "type": "uint256"
        }
      ],
      "name": "myStructs",
      "outputs": [
        {
          "internalType": "uint256",
          "name": "farm_id",
          "type": "uint256"
        },
        {
          "internalType": "string",
          "name": "farm_owner",
          "type": "string"
        },
        {
          "internalType": "bytes32",
          "name": "farmeraddress",
          "type": "bytes32"
        },
        {
          "internalType": "bytes32",
          "name": "place",
          "type": "bytes32"
        },
        {
          "internalType": "bytes32",
          "name": "requirement",
          "type": "bytes32"
        },
        {
          "internalType": "bytes32",
          "name": "standard",
          "type": "bytes32"
        },
        {
          "internalType": "address",
          "name": "acc",
          "type": "address"
        },
        {
          "internalType": "bytes32",
          "name": "status",
          "type": "bytes32"
        }
      ],
      "payable": false,
      "stateMutability": "view",
      "type": "function"
    },
    {
      "constant": true,
      "inputs": [
        {
          "internalType": "address",
          "name": "",
          "type": "address"
        }
      ],
      "name": "register",
      "outputs": [
        {
          "internalType": "string",
          "name": "role",
          "type": "string"
        },
        {
          "internalType": "address",
          "name": "pass",
          "type": "address"
        }
      ],
      "payable": false,
      "stateMutability": "view",
      "type": "function"
    },
    {
      "constant": false,
      "inputs": [
        {
          "internalType": "string",
          "name": "urole",
          "type": "string"
        },
        {
          "internalType": "address",
          "name": "account",
          "type": "address"
        },
        {
          "internalType": "uint256[]",
          "name": "tArray",
          "type": "uint256[]"
        }
      ],
      "name": "savesignupfarmer",
      "outputs": [
        {
          "internalType": "bool",
          "name": "",
          "type": "bool"
        }
      ],
      "payable": true,
      "stateMutability": "payable",
      "type": "function"
    },
    {
      "constant": false,
      "inputs": [
        {
          "internalType": "string",
          "name": "urole",
          "type": "string"
        },
        {
          "internalType": "address",
          "name": "account",
          "type": "address"
        }
      ],
      "name": "savesignup",
      "outputs": [
        {
          "internalType": "bool",
          "name": "",
          "type": "bool"
        }
      ],
      "payable": true,
      "stateMutability": "payable",
      "type": "function"
    },
    {
      "constant": true,
      "inputs": [
        {
          "internalType": "address",
          "name": "account",
          "type": "address"
        }
      ],
      "name": "logindata",
      "outputs": [
        {
          "internalType": "string",
          "name": "",
          "type": "string"
        }
      ],
      "payable": false,
      "stateMutability": "view",
      "type": "function"
    },
    {
      "constant": false,
      "inputs": [
        {
          "internalType": "address",
          "name": "acc",
          "type": "address"
        },
        {
          "internalType": "uint256[]",
          "name": "tArray",
          "type": "uint256[]"
        }
      ],
      "name": "saveTokenData",
      "outputs": [
        {
          "internalType": "bool",
          "name": "",
          "type": "bool"
        }
      ],
      "payable": false,
      "stateMutability": "nonpayable",
      "type": "function"
    },
    {
      "constant": true,
      "inputs": [
        {
          "internalType": "address",
          "name": "acc",
          "type": "address"
        }
      ],
      "name": "popToken",
      "outputs": [
        {
          "internalType": "uint256",
          "name": "",
          "type": "uint256"
        }
      ],
      "payable": false,
      "stateMutability": "view",
      "type": "function"
    },
    {
      "constant": false,
      "inputs": [
        {
          "internalType": "uint256",
          "name": "_farmid",
          "type": "uint256"
        },
        {
          "internalType": "string",
          "name": "_farmowner",
          "type": "string"
        },
        {
          "internalType": "bytes32",
          "name": "_farmeraddress",
          "type": "bytes32"
        },
        {
          "internalType": "bytes32",
          "name": "_place",
          "type": "bytes32"
        },
        {
          "internalType": "bytes32",
          "name": "_requirement",
          "type": "bytes32"
        },
        {
          "internalType": "bytes32",
          "name": "_standard",
          "type": "bytes32"
        },
        {
          "internalType": "address",
          "name": "_account",
          "type": "address"
        },
        {
          "internalType": "bytes32",
          "name": "_status",
          "type": "bytes32"
        }
      ],
      "name": "addApplication",
      "outputs": [
        {
          "internalType": "bool",
          "name": "",
          "type": "bool"
        }
      ],
      "payable": true,
      "stateMutability": "payable",
      "type": "function"
    },
    {
      "constant": false,
      "inputs": [
        {
          "internalType": "uint256",
          "name": "_farmid",
          "type": "uint256"
        },
        {
          "internalType": "string",
          "name": "_crop",
          "type": "string"
        },
        {
          "internalType": "bytes32",
          "name": "_extent",
          "type": "bytes32"
        },
        {
          "internalType": "bytes32",
          "name": "_previouscrop",
          "type": "bytes32"
        },
        {
          "internalType": "bytes32",
          "name": "_protect",
          "type": "bytes32"
        },
        {
          "internalType": "bytes32",
          "name": "_manure",
          "type": "bytes32"
        },
        {
          "internalType": "bytes32",
          "name": "_seed",
          "type": "bytes32"
        },
        {
          "internalType": "bytes32",
          "name": "_soiltype",
          "type": "bytes32"
        },
        {
          "internalType": "address",
          "name": "acco",
          "type": "address"
        }
      ],
      "name": "addApplication2",
      "outputs": [
        {
          "internalType": "bool",
          "name": "",
          "type": "bool"
        }
      ],
      "payable": true,
      "stateMutability": "payable",
      "type": "function"
    },
    {
      "constant": true,
      "inputs": [
        {
          "internalType": "address",
          "name": "acc",
          "type": "address"
        }
      ],
      "name": "getFarm",
      "outputs": [
        {
          "internalType": "uint256[]",
          "name": "",
          "type": "uint256[]"
        }
      ],
      "payable": false,
      "stateMutability": "view",
      "type": "function"
    },
    {
      "constant": true,
      "inputs": [
        {
          "internalType": "uint256",
          "name": "id",
          "type": "uint256"
        }
      ],
      "name": "getApplication",
      "outputs": [
        {
          "internalType": "uint256",
          "name": "",
          "type": "uint256"
        },
        {
          "internalType": "string",
          "name": "",
          "type": "string"
        },
        {
          "internalType": "bytes32",
          "name": "",
          "type": "bytes32"
        }
      ],
      "payable": false,
      "stateMutability": "view",
      "type": "function"
    },
    {
      "constant": true,
      "inputs": [],
      "name": "getApplicationCount",
      "outputs": [
        {
          "internalType": "uint256",
          "name": "",
          "type": "uint256"
        }
      ],
      "payable": false,
      "stateMutability": "view",
      "type": "function"
    },
    {
      "constant": false,
      "inputs": [
        {
          "internalType": "uint256",
          "name": "_id",
          "type": "uint256"
        },
        {
          "internalType": "uint256",
          "name": "idate",
          "type": "uint256"
        },
        {
          "internalType": "string",
          "name": "iname",
          "type": "string"
        }
      ],
      "name": "addInspectDetails",
      "outputs": [
        {
          "internalType": "bool",
          "name": "",
          "type": "bool"
        }
      ],
      "payable": true,
      "stateMutability": "payable",
      "type": "function"
    },
    {
      "constant": true,
      "inputs": [
        {
          "internalType": "uint256",
          "name": "farm_id",
          "type": "uint256"
        }
      ],
      "name": "getInfo",
      "outputs": [
        {
          "internalType": "string",
          "name": "",
          "type": "string"
        },
        {
          "internalType": "bytes32",
          "name": "",
          "type": "bytes32"
        },
        {
          "internalType": "bytes32",
          "name": "",
          "type": "bytes32"
        },
        {
          "internalType": "bytes32",
          "name": "",
          "type": "bytes32"
        },
        {
          "internalType": "bytes32",
          "name": "",
          "type": "bytes32"
        },
        {
          "internalType": "bytes32",
          "name": "",
          "type": "bytes32"
        },
        {
          "internalType": "uint256",
          "name": "",
          "type": "uint256"
        }
      ],
      "payable": false,
      "stateMutability": "view",
      "type": "function"
    },
    {
      "constant": true,
      "inputs": [
        {
          "internalType": "uint256",
          "name": "farm_id",
          "type": "uint256"
        }
      ],
      "name": "getextraInfo",
      "outputs": [
        {
          "internalType": "string",
          "name": "",
          "type": "string"
        },
        {
          "internalType": "bytes32",
          "name": "",
          "type": "bytes32"
        },
        {
          "internalType": "bytes32",
          "name": "",
          "type": "bytes32"
        },
        {
          "internalType": "bytes32",
          "name": "",
          "type": "bytes32"
        },
        {
          "internalType": "bytes32",
          "name": "",
          "type": "bytes32"
        },
        {
          "internalType": "bytes32",
          "name": "",
          "type": "bytes32"
        },
        {
          "internalType": "bytes32",
          "name": "",
          "type": "bytes32"
        }
      ],
      "payable": false,
      "stateMutability": "view",
      "type": "function"
    },
    {
      "constant": true,
      "inputs": [
        {
          "internalType": "uint256",
          "name": "farm_id",
          "type": "uint256"
        }
      ],
      "name": "getInspectedInfo",
      "outputs": [
        {
          "internalType": "uint256",
          "name": "",
          "type": "uint256"
        },
        {
          "internalType": "string",
          "name": "",
          "type": "string"
        }
      ],
      "payable": false,
      "stateMutability": "view",
      "type": "function"
    },
    {
      "constant": false,
      "inputs": [
        {
          "internalType": "uint256",
          "name": "farm_id",
          "type": "uint256"
        },
        {
          "internalType": "string",
          "name": "_farmowner",
          "type": "string"
        },
        {
          "internalType": "bytes32",
          "name": "_farmeraddress",
          "type": "bytes32"
        },
        {
          "internalType": "bytes32",
          "name": "_place",
          "type": "bytes32"
        },
        {
          "internalType": "bytes32",
          "name": "_requirement",
          "type": "bytes32"
        },
        {
          "internalType": "bytes32",
          "name": "_standard",
          "type": "bytes32"
        },
        {
          "internalType": "bytes32",
          "name": "status",
          "type": "bytes32"
        }
      ],
      "name": "updateFarm",
      "outputs": [
        {
          "internalType": "bool",
          "name": "",
          "type": "bool"
        }
      ],
      "payable": true,
      "stateMutability": "payable",
      "type": "function"
    },
    {
      "constant": false,
      "inputs": [
        {
          "internalType": "uint256",
          "name": "farm_id",
          "type": "uint256"
        },
        {
          "internalType": "string",
          "name": "_cname",
          "type": "string"
        },
        {
          "internalType": "uint256",
          "name": "_fromyr",
          "type": "uint256"
        },
        {
          "internalType": "uint256",
          "name": "_toyr",
          "type": "uint256"
        }
      ],
      "name": "addCertifierDetails",
      "outputs": [
        {
          "internalType": "bool",
          "name": "",
          "type": "bool"
        }
      ],
      "payable": true,
      "stateMutability": "payable",
      "type": "function"
    },
    {
      "constant": true,
      "inputs": [
        {
          "internalType": "uint256",
          "name": "farm_id",
          "type": "uint256"
        }
      ],
      "name": "getCertificationInfo",
      "outputs": [
        {
          "internalType": "string",
          "name": "",
          "type": "string"
        },
        {
          "internalType": "uint256",
          "name": "",
          "type": "uint256"
        },
        {
          "internalType": "uint256",
          "name": "",
          "type": "uint256"
        }
      ],
      "payable": false,
      "stateMutability": "view",
      "type": "function"
    },
    {
      "constant": true,
      "inputs": [],
      "name": "retApp",
      "outputs": [
        {
          "internalType": "bytes32[]",
          "name": "",
          "type": "bytes32[]"
        }
      ],
      "payable": false,
      "stateMutability": "view",
      "type": "function"
    },
    {
      "constant": false,
      "inputs": [
        {
          "internalType": "uint256",
          "name": "farm_id",
          "type": "uint256"
        },
        {
          "internalType": "bytes",
          "name": "hashArray",
          "type": "bytes"
        }
      ],
      "name": "setShapeArray",
      "outputs": [
        {
          "internalType": "bool",
          "name": "",
          "type": "bool"
        }
      ],
      "payable": true,
      "stateMutability": "payable",
      "type": "function"
    },
    {
      "constant": true,
      "inputs": [
        {
          "internalType": "uint256",
          "name": "farm_id",
          "type": "uint256"
        }
      ],
      "name": "getShapeArray",
      "outputs": [
        {
          "internalType": "bytes",
          "name": "",
          "type": "bytes"
        }
      ],
      "payable": false,
      "stateMutability": "view",
      "type": "function"
    }
  ],
  "bytecode": "0x608060405234801561001057600080fd5b50613121806100206000396000f3fe60806040526004361061019c5760003560e01c80634e8c4894116100ec5780638c3692c31161008a578063caf64c2611610064578063caf64c2614611471578063df90c8d31461156e578063e345c1621461167f578063e639201d146116eb5761019c565b80638c3692c3146112365780639e9d3a971461129b578063af641c22146113805761019c565b80635c79a1ed116100c65780635c79a1ed14610dd357806361cb367714610e8e5780636db8db8014610f7557806377fde065146110fc5761019c565b80634e8c489414610c1d578063569988ae14610ce657806358a6f4ca14610da85761019c565b80632e7da93f1161015957806334c2f7571161013357806334c2f7571461088d5780633bfc187c1461099c5780634420e48614610a425780634b5adec814610b3f5761019c565b80632e7da93f146106925780632fc75b041461076f578063340027d5146108625761019c565b80630866975c146101a15780631a3cd59a146102b25780631f2f4bfd146103905780632893fb0b14610452578063295343b6146105065780632b64ddee146105c8575b600080fd5b3480156101ad57600080fd5b506101da600480360360208110156101c457600080fd5b810190808035906020019092919050505061181b565b60405180898152602001806020018881526020018781526020018681526020018581526020018473ffffffffffffffffffffffffffffffffffffffff1673ffffffffffffffffffffffffffffffffffffffff168152602001838152602001828103825289818151815260200191508051906020019080838360005b83811015610270578082015181840152602081019050610255565b50505050905090810190601f16801561029d5780820380516001836020036101000a031916815260200191505b50995050505050505050505060405180910390f35b3480156102be57600080fd5b506102eb600480360360208110156102d557600080fd5b810190808035906020019092919050505061191b565b6040518080602001888152602001878152602001868152602001858152602001848152602001838152602001828103825289818151815260200191508051906020019080838360005b8381101561034f578082015181840152602081019050610334565b50505050905090810190601f16801561037c5780820380516001836020036101000a031916815260200191505b509850505050505050505060405180910390f35b34801561039c57600080fd5b506103c9600480360360208110156103b357600080fd5b8101908080359060200190929190505050611a65565b6040518084815260200180602001838152602001828103825284818151815260200191508051906020019080838360005b838110156104155780820151818401526020810190506103fa565b50505050905090810190601f1680156104425780820380516001836020036101000a031916815260200191505b5094505050505060405180910390f35b34801561045e57600080fd5b5061048b6004803603602081101561047557600080fd5b8101908080359060200190929190505050611b58565b6040518080602001828103825283818151815260200191508051906020019080838360005b838110156104cb5780820151818401526020810190506104b0565b50505050905090810190601f1680156104f85780820380516001836020036101000a031916815260200191505b509250505060405180910390f35b34801561051257600080fd5b5061053f6004803603602081101561052957600080fd5b8101908080359060200190929190505050611c10565b6040518084815260200183815260200180602001828103825283818151815260200191508051906020019080838360005b8381101561058b578082015181840152602081019050610570565b50505050905090810190601f1680156105b85780820380516001836020036101000a031916815260200191505b5094505050505060405180910390f35b3480156105d457600080fd5b50610617600480360360208110156105eb57600080fd5b81019080803573ffffffffffffffffffffffffffffffffffffffff169060200190929190505050611cd2565b6040518080602001828103825283818151815260200191508051906020019080838360005b8381101561065757808201518184015260208101905061063c565b50505050905090810190601f1680156106845780820380516001836020036101000a031916815260200191505b509250505060405180910390f35b610755600480360360408110156106a857600080fd5b8101908080359060200190929190803590602001906401000000008111156106cf57600080fd5b8201836020820111156106e157600080fd5b8035906020019184600183028401116401000000008311171561070357600080fd5b91908080601f016020809104026020016040519081016040528093929190818152602001838380828437600081840152601f19601f820116905080830192505050505050509192919290505050611db5565b604051808215151515815260200191505060405180910390f35b6108486004803603604081101561078557600080fd5b81019080803590602001906401000000008111156107a257600080fd5b8201836020820111156107b457600080fd5b803590602001918460018302840111640100000000831117156107d657600080fd5b91908080601f016020809104026020016040519081016040528093929190818152602001838380828437600081840152601f19601f820116905080830192505050505050509192919290803573ffffffffffffffffffffffffffffffffffffffff169060200190929190505050611de8565b604051808215151515815260200191505060405180910390f35b34801561086e57600080fd5b50610877611e4a565b6040518082815260200191505060405180910390f35b610982600480360360e08110156108a357600080fd5b8101908080359060200190929190803590602001906401000000008111156108ca57600080fd5b8201836020820111156108dc57600080fd5b803590602001918460018302840111640100000000831117156108fe57600080fd5b91908080601f016020809104026020016040519081016040528093929190818152602001838380828437600081840152601f19601f8201169050808301925050505050505091929192908035906020019092919080359060200190929190803590602001909291908035906020019092919080359060200190929190505050611e50565b604051808215151515815260200191505060405180910390f35b3480156109a857600080fd5b506109eb600480360360208110156109bf57600080fd5b81019080803573ffffffffffffffffffffffffffffffffffffffff169060200190929190505050611f0f565b6040518080602001828103825283818151815260200191508051906020019060200280838360005b83811015610a2e578082015181840152602081019050610a13565b505050509050019250505060405180910390f35b348015610a4e57600080fd5b50610a9160048036036020811015610a6557600080fd5b81019080803573ffffffffffffffffffffffffffffffffffffffff169060200190929190505050611fa9565b60405180806020018373ffffffffffffffffffffffffffffffffffffffff1673ffffffffffffffffffffffffffffffffffffffff168152602001828103825284818151815260200191508051906020019080838360005b83811015610b03578082015181840152602081019050610ae8565b50505050905090810190601f168015610b305780820380516001836020036101000a031916815260200191505b50935050505060405180910390f35b348015610b4b57600080fd5b50610b7860048036036020811015610b6257600080fd5b8101908080359060200190929190505050612085565b6040518080602001888152602001878152602001868152602001858152602001848152602001838152602001828103825289818151815260200191508051906020019080838360005b83811015610bdc578082015181840152602081019050610bc1565b50505050905090810190601f168015610c095780820380516001836020036101000a031916815260200191505b509850505050505050505060405180910390f35b348015610c2957600080fd5b50610c5660048036036020811015610c4057600080fd5b81019080803590602001909291905050506121e5565b6040518085815260200180602001848152602001838152602001828103825285818151815260200191508051906020019080838360005b83811015610ca8578082015181840152602081019050610c8d565b50505050905090810190601f168015610cd55780820380516001836020036101000a031916815260200191505b509550505050505060405180910390f35b348015610cf257600080fd5b50610d1f60048036036020811015610d0957600080fd5b81019080803590602001909291905050506122ad565b6040518080602001848152602001838152602001828103825285818151815260200191508051906020019080838360005b83811015610d6b578082015181840152602081019050610d50565b50505050905090810190601f168015610d985780820380516001836020036101000a031916815260200191505b5094505050505060405180910390f35b348015610db457600080fd5b50610dbd61239f565b6040518082815260200191505060405180910390f35b348015610ddf57600080fd5b50610e0c60048036036020811015610df657600080fd5b81019080803590602001909291905050506123ac565b6040518083815260200180602001828103825283818151815260200191508051906020019080838360005b83811015610e52578082015181840152602081019050610e37565b50505050905090810190601f168015610e7f5780820380516001836020036101000a031916815260200191505b50935050505060405180910390f35b610f5b60048036036060811015610ea457600080fd5b81019080803590602001909291908035906020019092919080359060200190640100000000811115610ed557600080fd5b820183602082011115610ee757600080fd5b80359060200191846001830284011164010000000083111715610f0957600080fd5b91908080601f016020809104026020016040519081016040528093929190818152602001838380828437600081840152601f19601f820116905080830192505050505050509192919290505050612482565b604051808215151515815260200191505060405180910390f35b6110e260048036036060811015610f8b57600080fd5b8101908080359060200190640100000000811115610fa857600080fd5b820183602082011115610fba57600080fd5b80359060200191846001830284011164010000000083111715610fdc57600080fd5b91908080601f016020809104026020016040519081016040528093929190818152602001838380828437600081840152601f19601f820116905080830192505050505050509192919290803573ffffffffffffffffffffffffffffffffffffffff1690602001909291908035906020019064010000000081111561105f57600080fd5b82018360208201111561107157600080fd5b8035906020019184602083028401116401000000008311171561109357600080fd5b919080806020026020016040519081016040528093929190818152602001838360200280828437600081840152601f19601f8201169050808301925050505050505091929192905050506124ed565b604051808215151515815260200191505060405180910390f35b61121c600480360361012081101561111357600080fd5b81019080803590602001909291908035906020019064010000000081111561113a57600080fd5b82018360208201111561114c57600080fd5b8035906020019184600183028401116401000000008311171561116e57600080fd5b91908080601f016020809104026020016040519081016040528093929190818152602001838380828437600081840152601f19601f820116905080830192505050505050509192919290803590602001909291908035906020019092919080359060200190929190803590602001909291908035906020019092919080359060200190929190803573ffffffffffffffffffffffffffffffffffffffff1690602001909291905050506125ec565b604051808215151515815260200191505060405180910390f35b34801561124257600080fd5b506112856004803603602081101561125957600080fd5b81019080803573ffffffffffffffffffffffffffffffffffffffff169060200190929190505050612828565b6040518082815260200191505060405180910390f35b3480156112a757600080fd5b506112d4600480360360208110156112be57600080fd5b810190808035906020019092919050505061288a565b6040518089815260200180602001888152602001878152602001868152602001858152602001848152602001838152602001828103825289818151815260200191508051906020019080838360005b8381101561133e578082015181840152602081019050611323565b50505050905090810190601f16801561136b5780820380516001836020036101000a031916815260200191505b50995050505050505050505060405180910390f35b6114576004803603608081101561139657600080fd5b8101908080359060200190929190803590602001906401000000008111156113bd57600080fd5b8201836020820111156113cf57600080fd5b803590602001918460018302840111640100000000831117156113f157600080fd5b91908080601f016020809104026020016040519081016040528093929190818152602001838380828437600081840152601f19601f820116905080830192505050505050509192919290803590602001909291908035906020019092919050505061296a565b604051808215151515815260200191505060405180910390f35b34801561147d57600080fd5b506115546004803603604081101561149457600080fd5b81019080803573ffffffffffffffffffffffffffffffffffffffff169060200190929190803590602001906401000000008111156114d157600080fd5b8201836020820111156114e357600080fd5b8035906020019184602083028401116401000000008311171561150557600080fd5b919080806020026020016040519081016040528093929190818152602001838360200280828437600081840152601f19601f8201169050808301925050505050505091929192905050506129d5565b604051808215151515815260200191505060405180910390f35b34801561157a57600080fd5b506115a76004803603602081101561159157600080fd5b8101908080359060200190929190505050612a7d565b60405180898152602001806020018881526020018781526020018681526020018581526020018473ffffffffffffffffffffffffffffffffffffffff1673ffffffffffffffffffffffffffffffffffffffff168152602001838152602001828103825289818151815260200191508051906020019080838360005b8381101561163d578082015181840152602081019050611622565b50505050905090810190601f16801561166a5780820380516001836020036101000a031916815260200191505b50995050505050505050505060405180910390f35b34801561168b57600080fd5b50611694612b8a565b6040518080602001828103825283818151815260200191508051906020019060200280838360005b838110156116d75780820151818401526020810190506116bc565b505050509050019250505060405180910390f35b611801600480360361010081101561170257600080fd5b81019080803590602001909291908035906020019064010000000081111561172957600080fd5b82018360208201111561173b57600080fd5b8035906020019184600183028401116401000000008311171561175d57600080fd5b91908080601f016020809104026020016040519081016040528093929190818152602001838380828437600081840152601f19601f82011690508083019250505050505050919291929080359060200190929190803590602001909291908035906020019092919080359060200190929190803573ffffffffffffffffffffffffffffffffffffffff16906020019092919080359060200190929190505050612be2565b604051808215151515815260200191505060405180910390f35b6004602052806000526040600020600091509050806000015490806001018054600181600116156101000203166002900480601f0160208091040260200160405190810160405280929190818152602001828054600181600116156101000203166002900480156118cd5780601f106118a2576101008083540402835291602001916118cd565b820191906000526020600020905b8154815290600101906020018083116118b057829003601f168201915b5050505050908060020154908060030154908060040154908060050154908060060160009054906101000a900473ffffffffffffffffffffffffffffffffffffffff16908060070154905088565b606060008060008060008060046000898152602001908152602001600020600101600460008a815260200190815260200160002060020154600460008b815260200190815260200160002060030154600460008c815260200190815260200160002060040154600460008d815260200190815260200160002060050154600460008e8152602001908152602001600020600701548d868054600181600116156101000203166002900480601f016020809104026020016040519081016040528092919081815260200182805460018160011615610100020316600290048015611a455780601f10611a1a57610100808354040283529160200191611a45565b820191906000526020600020905b815481529060010190602001808311611a2857829003601f168201915b505050505096509650965096509650965096509650919395979092949650565b6000606060006004600085815260200190815260200160002060000154600460008681526020019081526020016000206001016004600087815260200190815260200160002060070154818054600181600116156101000203166002900480601f016020809104026020016040519081016040528092919081815260200182805460018160011615610100020316600290048015611b445780601f10611b1957610100808354040283529160200191611b44565b820191906000526020600020905b815481529060010190602001808311611b2757829003601f168201915b505050505091509250925092509193909250565b6060600a60008381526020019081526020016000206000018054600181600116156101000203166002900480601f016020809104026020016040519081016040528092919081815260200182805460018160011615610100020316600290048015611c045780601f10611bd957610100808354040283529160200191611c04565b820191906000526020600020905b815481529060010190602001808311611be757829003601f168201915b50505050509050919050565b6008602052806000526040600020600091509050806000015490806001015490806002018054600181600116156101000203166002900480601f016020809104026020016040519081016040528092919081815260200182805460018160011615610100020316600290048015611cc85780601f10611c9d57610100808354040283529160200191611cc8565b820191906000526020600020905b815481529060010190602001808311611cab57829003601f168201915b5050505050905083565b60606000808373ffffffffffffffffffffffffffffffffffffffff1673ffffffffffffffffffffffffffffffffffffffff1681526020019081526020016000206000018054600181600116156101000203166002900480601f016020809104026020016040519081016040528092919081815260200182805460018160011615610100020316600290048015611da95780601f10611d7e57610100808354040283529160200191611da9565b820191906000526020600020905b815481529060010190602001808311611d8c57829003601f168201915b50505050509050919050565b600081600a60008581526020019081526020016000206000019080519060200190611de1929190612edd565b5092915050565b6000826000808473ffffffffffffffffffffffffffffffffffffffff1673ffffffffffffffffffffffffffffffffffffffff1681526020019081526020016000206000019080519060200190611e3f929190612f5d565b506001905092915050565b60065481565b600086600460008a81526020019081526020016000206001019080519060200190611e7c929190612f5d565b5085600460008a81526020019081526020016000206002018190555084600460008a81526020019081526020016000206003018190555083600460008a81526020019081526020016000206004018190555082600460008a81526020019081526020016000206005018190555081600460008a815260200190815260200160002060070181905550979650505050505050565b6060600760008373ffffffffffffffffffffffffffffffffffffffff1673ffffffffffffffffffffffffffffffffffffffff168152602001908152602001600020600001805480602002602001604051908101604052809291908181526020018280548015611f9d57602002820191906000526020600020905b815481526020019060010190808311611f89575b50505050509050919050565b6000602052806000526040600020600091509050806000018054600181600116156101000203166002900480601f0160208091040260200160405190810160405280929190818152602001828054600181600116156101000203166002900480156120555780601f1061202a57610100808354040283529160200191612055565b820191906000526020600020905b81548152906001019060200180831161203857829003601f168201915b5050505050908060010160009054906101000a900473ffffffffffffffffffffffffffffffffffffffff16905082565b606060008060008060008060056000898152602001908152602001600020600101600560008a815260200190815260200160002060020154600560008b815260200190815260200160002060030154600560008c815260200190815260200160002060040154600560008d815260200190815260200160002060050154600560008e815260200190815260200160002060060154600560008f815260200190815260200160002060070154868054600181600116156101000203166002900480601f0160208091040260200160405190810160405280929190818152602001828054600181600116156101000203166002900480156121c55780601f1061219a576101008083540402835291602001916121c5565b820191906000526020600020905b8154815290600101906020018083116121a857829003601f168201915b505050505096509650965096509650965096509650919395979092949650565b6009602052806000526040600020600091509050806000015490806001018054600181600116156101000203166002900480601f0160208091040260200160405190810160405280929190818152602001828054600181600116156101000203166002900480156122975780601f1061226c57610100808354040283529160200191612297565b820191906000526020600020905b81548152906001019060200180831161227a57829003601f168201915b5050505050908060020154908060030154905084565b60606000806009600085815260200190815260200160002060010160096000868152602001908152602001600020600201546009600087815260200190815260200160002060030154828054600181600116156101000203166002900480601f01602080910402602001604051908101604052809291908181526020018280546001816001161561010002031660029004801561238b5780601f106123605761010080835404028352916020019161238b565b820191906000526020600020905b81548152906001019060200180831161236e57829003601f168201915b505050505092509250925092509193909250565b6000600380549050905090565b60006060600860008481526020019081526020016000206001015460086000858152602001908152602001600020600201808054600181600116156101000203166002900480601f0160208091040260200160405190810160405280929190818152602001828054600181600116156101000203166002900480156124725780601f1061244757610100808354040283529160200191612472565b820191906000526020600020905b81548152906001019060200180831161245557829003601f168201915b5050505050905091509150915091565b600060405180606001604052808581526020018481526020018381525060086000868152602001908152602001600020600082015181600001556020820151816001015560408201518160020190805190602001906124e2929190612fdd565b509050509392505050565b6000836000808573ffffffffffffffffffffffffffffffffffffffff1673ffffffffffffffffffffffffffffffffffffffff1681526020019081526020016000206000019080519060200190612544929190612f5d565b5060008090505b82518110156125e057600260008573ffffffffffffffffffffffffffffffffffffffff1673ffffffffffffffffffffffffffffffffffffffff1681526020019081526020016000206000018382815181106125a257fe5b60200260200101519080600181540180825580915050906001820390600052602060002001600090919290919091505550808060010191505061254b565b50600190509392505050565b60006040518061010001604052808b81526020018a815260200189815260200188815260200187815260200186815260200185815260200184815250600560008c8152602001908152602001600020600082015181600001556020820151816001019080519060200190612661929190612fdd565b5060408201518160020155606082015181600301556080820151816004015560a0820151816005015560c0820151816006015560e08201518160070155905050600260008373ffffffffffffffffffffffffffffffffffffffff1673ffffffffffffffffffffffffffffffffffffffff1681526020019081526020016000206000016000815481106126ef57fe5b906000526020600020016000905560008090505b6001600260008573ffffffffffffffffffffffffffffffffffffffff1673ffffffffffffffffffffffffffffffffffffffff168152602001908152602001600020600001805490500381101561281657600260008473ffffffffffffffffffffffffffffffffffffffff1673ffffffffffffffffffffffffffffffffffffffff16815260200190815260200160002060000160018201815481106127a357fe5b9060005260206000200154600260008573ffffffffffffffffffffffffffffffffffffffff1673ffffffffffffffffffffffffffffffffffffffff16815260200190815260200160002060000182815481106127fb57fe5b90600052602060002001819055508080600101915050612703565b50600190509998505050505050505050565b6000600260008373ffffffffffffffffffffffffffffffffffffffff1673ffffffffffffffffffffffffffffffffffffffff16815260200190815260200160002060000160008154811061287857fe5b90600052602060002001549050919050565b6005602052806000526040600020600091509050806000015490806001018054600181600116156101000203166002900480601f01602080910402602001604051908101604052809291908181526020018280546001816001161561010002031660029004801561293c5780601f106129115761010080835404028352916020019161293c565b820191906000526020600020905b81548152906001019060200180831161291f57829003601f168201915b5050505050908060020154908060030154908060040154908060050154908060060154908060070154905088565b600083600960008781526020019081526020016000206001019080519060200190612996929190612f5d565b50826009600087815260200190815260200160002060020181905550816009600087815260200190815260200160002060030181905550949350505050565b600080600090505b8251811015612a7257600260008573ffffffffffffffffffffffffffffffffffffffff1673ffffffffffffffffffffffffffffffffffffffff168152602001908152602001600020600001838281518110612a3457fe5b6020026020010151908060018154018082558091505090600182039060005260206000200160009091929091909150555080806001019150506129dd565b506001905092915050565b60038181548110612a8a57fe5b9060005260206000209060080201600091509050806000015490806001018054600181600116156101000203166002900480601f016020809104026020016040519081016040528092919081815260200182805460018160011615610100020316600290048015612b3c5780601f10612b1157610100808354040283529160200191612b3c565b820191906000526020600020905b815481529060010190602001808311612b1f57829003601f168201915b5050505050908060020154908060030154908060040154908060050154908060060160009054906101000a900473ffffffffffffffffffffffffffffffffffffffff16908060070154905088565b60606001805480602002602001604051908101604052809291908181526020018280548015612bd857602002820191906000526020600020905b815481526020019060010190808311612bc4575b5050505050905090565b600060066000815480929190600101919050555088600460008b81526020019081526020016000206000018190555087600460008b81526020019081526020016000206001019080519060200190612c3b929190612f5d565b5086600460008b81526020019081526020016000206002018190555085600460008b81526020019081526020016000206003018190555084600460008b81526020019081526020016000206004018190555083600460008b81526020019081526020016000206005018190555082600460008b815260200190815260200160002060060160006101000a81548173ffffffffffffffffffffffffffffffffffffffff021916908373ffffffffffffffffffffffffffffffffffffffff16021790555081600460008b815260200190815260200160002060070181905550600760008473ffffffffffffffffffffffffffffffffffffffff1673ffffffffffffffffffffffffffffffffffffffff168152602001908152602001600020600001899080600181540180825580915050906001820390600052602060002001600090919290919091505550612d8c61305d565b898160000181815250508881602001819052508781604001818152505085816080018181525050848160a0018181525050838160c0019073ffffffffffffffffffffffffffffffffffffffff16908173ffffffffffffffffffffffffffffffffffffffff1681525050828160e001818152505060038190806001815401808255809150509060018203906000526020600020906008020160009091929091909150600082015181600001556020820151816001019080519060200190612e53929190612fdd565b5060408201518160020155606082015181600301556080820151816004015560a0820151816005015560c08201518160060160006101000a81548173ffffffffffffffffffffffffffffffffffffffff021916908373ffffffffffffffffffffffffffffffffffffffff16021790555060e082015181600701555050505098975050505050505050565b828054600181600116156101000203166002900490600052602060002090601f016020900481019282601f10612f1e57805160ff1916838001178555612f4c565b82800160010185558215612f4c579182015b82811115612f4b578251825591602001919060010190612f30565b5b509050612f5991906130c7565b5090565b828054600181600116156101000203166002900490600052602060002090601f016020900481019282601f10612f9e57805160ff1916838001178555612fcc565b82800160010185558215612fcc579182015b82811115612fcb578251825591602001919060010190612fb0565b5b509050612fd991906130c7565b5090565b828054600181600116156101000203166002900490600052602060002090601f016020900481019282601f1061301e57805160ff191683800117855561304c565b8280016001018555821561304c579182015b8281111561304b578251825591602001919060010190613030565b5b50905061305991906130c7565b5090565b604051806101000160405280600081526020016060815260200160008019168152602001600080191681526020016000801916815260200160008019168152602001600073ffffffffffffffffffffffffffffffffffffffff168152602001600080191681525090565b6130e991905b808211156130e55760008160009055506001016130cd565b5090565b9056fea265627a7a723158209e7e70432f6375720f2ea4e1e90eeb8561bb00b0e325d9860f6facba2ff1426964736f6c63430005100032",
  "source": "// SPDX-License-Identifier: GPL-3.0\npragma solidity >=0.4.16 <0.9.0;\n\ncontract RiceCertificate {\n\n    //sign up or login\n    struct reg {\n        string role;\n        address pass;\n    }\n    mapping(address => reg) public register;\n\n    function savesignupfarmer(\n        string memory urole,\n        address account,\n        uint256[] memory tArray\n    ) public payable returns (bool) {\n        register[account].role = urole;\n        for (uint256 k = 0; k < tArray.length; k++) {\n            TokenData[account].ERC721Tokens.push(tArray[k]);\n        }\n        return true;\n    }\n\n    function savesignup(string memory urole, address account)\n        public\n        payable\n        returns (bool)\n    {\n        register[account].role = urole;\n        return true;\n    }\n\n    function logindata(address account) public view returns (string memory) {\n        return (register[account].role);\n    }\n\n    bytes32[] appTable;\n\n    struct Tokens {\n        uint256[] ERC721Tokens;\n    }\n    mapping(address => Tokens) TokenData;\n\n    function saveTokenData(address acc, uint256[] memory tArray)\n        public\n        returns (bool)\n    {\n        for (uint256 k = 0; k < tArray.length; k++) {\n            TokenData[acc].ERC721Tokens.push(tArray[k]);\n        }\n        return true;\n    }\n\n    function popToken(address acc) public view returns (uint256) {\n        return TokenData[acc].ERC721Tokens[0];\n    }\n\n    struct ricefield {\n        uint256 farm_id;\n        string farm_owner;\n        bytes32 farmeraddress;\n        bytes32 place;\n        bytes32 requirement;\n        bytes32 standard;\n        address acc;\n        bytes32 status;\n    }\n\n    ricefield[] public myStructs;\n\n    mapping(uint256 => ricefield) public RiceMap;\n\n    struct extraInfo {\n        uint256 farm_id;\n        string crop;\n        bytes32 extent;\n        bytes32 previouscrop;\n        bytes32 protect;\n        bytes32 manure;\n        bytes32 seed;\n        bytes32 soiltype;\n    }\n    mapping(uint256 => extraInfo) public RiceInfo;\n\n    uint256 public countApplication;\n\n    function addApplication(\n        uint256 _farmid,\n        string memory _farmowner,\n        bytes32 _farmeraddress,\n        bytes32 _place,\n        bytes32 _requirement,\n        bytes32 _standard,\n        address _account,\n        bytes32 _status\n    ) public payable returns (bool) {\n        countApplication++;\n        RiceMap[_farmid].farm_id = _farmid;\n        RiceMap[_farmid].farm_owner = _farmowner;\n        RiceMap[_farmid].farmeraddress = _farmeraddress;\n        RiceMap[_farmid].place = _place;\n        RiceMap[_farmid].requirement = _requirement;\n        RiceMap[_farmid].standard = _standard;\n        RiceMap[_farmid].acc = _account;\n        RiceMap[_farmid].status = _status;\n        //appTable.push(forCheckInspection);\n        /*RiceMap[_farmid] = ricefield(_farmid,_farmowner,_farmeraddress,_place,_requirement,_standard,_account,_status);*/\n        accountTable[_account].accountArray.push(_farmid);\n        ricefield memory m;\n        m.farm_id = _farmid;\n        m.farm_owner = _farmowner;\n        m.farmeraddress = _farmeraddress;\n        //m.place = _place;\n        m.requirement = _requirement;\n        m.standard = _standard;\n        m.acc = _account;\n        m.status = _status;\n        /*m.crop = _crop;\n\tm.extent = _extent;\n\tm.previouscrop = _previouscrop;\n\tm.protect = _protect;\n\tm.manure = _manure;\n\tm.seed = _seed;\n\tm.soiltype = _soiltype;*/\n        myStructs.push(m);\n        // RiceMap1[_farmid] = ricefield(_farmid,_farmowner,_farmeraddress,_place,_requirement,_standard,_account,_status);\n    }\n\n    function addApplication2(\n        uint256 _farmid,\n        string memory _crop,\n        bytes32 _extent,\n        bytes32 _previouscrop,\n        bytes32 _protect,\n        bytes32 _manure,\n        bytes32 _seed,\n        bytes32 _soiltype,\n        address acco\n    ) public payable returns (bool) {\n        RiceInfo[_farmid] = extraInfo(\n            _farmid,\n            _crop,\n            _extent,\n            _previouscrop,\n            _protect,\n            _manure,\n            _seed,\n            _soiltype\n        );\n        delete TokenData[acco].ERC721Tokens[0];\n        for (uint256 k = 0; k < TokenData[acco].ERC721Tokens.length - 1; k++) {\n            TokenData[acco].ERC721Tokens[k] = TokenData[acco].ERC721Tokens[\n                k + 1\n            ];\n        }\n        return true;\n    }\n\n    struct mapB {\n        uint256[] accountArray;\n    }\n    mapping(address => mapB) accountTable;\n\n    //getfarmid for accounts\n    function getFarm(address acc) public view returns (uint256[] memory) {\n        return accountTable[acc].accountArray;\n    }\n\n    //for FARMER\n    function getApplication(uint256 id)\n        public\n        view\n        returns (\n            uint256,\n            string memory,\n            bytes32\n        )\n    {\n        return (\n            RiceMap[id].farm_id,\n            RiceMap[id].farm_owner,\n            RiceMap[id].status\n        );\n    }\n\n    struct inspection {\n        uint256 id;\n        uint256 idate;\n        string iname;\n    }\n    mapping(uint256 => inspection) public Inspect;\n\n    //for inspector applications table\n    function getApplicationCount() public view returns (uint256) {\n        return (myStructs.length);\n    }\n\n    function addInspectDetails(\n        uint256 _id,\n        uint256 idate,\n        string memory iname\n    ) public payable returns (bool) {\n        Inspect[_id] = inspection(_id, idate, iname);\n    }\n\n    //for getting info based on farm_id\n    function getInfo(uint256 farm_id)\n        public\n        view\n        returns (\n            string memory,\n            bytes32,\n            bytes32,\n            bytes32,\n            bytes32,\n            bytes32,\n            uint256\n        )\n    {\n        return (\n            RiceMap[farm_id].farm_owner,\n            RiceMap[farm_id].farmeraddress,\n            RiceMap[farm_id].place,\n            RiceMap[farm_id].requirement,\n            RiceMap[farm_id].standard,\n            RiceMap[farm_id].status,\n            farm_id\n        );\n    }\n\n    function getextraInfo(uint256 farm_id)\n        public\n        view\n        returns (\n            string memory,\n            bytes32,\n            bytes32,\n            bytes32,\n            bytes32,\n            bytes32,\n            bytes32\n        )\n    {\n        return (\n            RiceInfo[farm_id].crop,\n            RiceInfo[farm_id].extent,\n            RiceInfo[farm_id].previouscrop,\n            RiceInfo[farm_id].protect,\n            RiceInfo[farm_id].manure,\n            RiceInfo[farm_id].seed,\n            RiceInfo[farm_id].soiltype\n        );\n    }\n\n    //for getting inspection info based on farm_id\n    function getInspectedInfo(uint256 farm_id)\n        public\n        view\n        returns (uint256, string memory)\n    {\n        return (Inspect[farm_id].idate, Inspect[farm_id].iname);\n    }\n\n    //for inspector and certifier\n    function updateFarm(\n        uint256 farm_id,\n        string memory _farmowner,\n        bytes32 _farmeraddress,\n        bytes32 _place,\n        bytes32 _requirement,\n        bytes32 _standard,\n        bytes32 status\n    ) public payable returns (bool) {\n        RiceMap[farm_id].farm_owner = _farmowner;\n        RiceMap[farm_id].farmeraddress = _farmeraddress;\n        RiceMap[farm_id].place = _place;\n        RiceMap[farm_id].requirement = _requirement;\n        RiceMap[farm_id].standard = _standard;\n        //\tRiceMap[farm_id].acc = _account;\n        RiceMap[farm_id].status = status;\n    }\n\n    struct certification {\n        uint256 farm_id;\n        string cname;\n        uint256 fromyr;\n        uint256 toyr;\n    }\n\n    mapping(uint256 => certification) public Certified;\n\n    function addCertifierDetails(\n        uint256 farm_id,\n        string memory _cname,\n        uint256 _fromyr,\n        uint256 _toyr\n    ) public payable returns (bool) {\n        Certified[farm_id].cname = _cname;\n        Certified[farm_id].fromyr = _fromyr;\n        Certified[farm_id].toyr = _toyr;\n    }\n\n    function getCertificationInfo(uint256 farm_id)\n        public\n        view\n        returns (\n            string memory,\n            uint256,\n            uint256\n        )\n    {\n        return (\n            Certified[farm_id].cname,\n            Certified[farm_id].fromyr,\n            Certified[farm_id].toyr\n        );\n    }\n\n    /// @dev used to return the list of application for inspector and certifier\n    /// @return bytes32[] array\n    function retApp() public view returns (bytes32[] memory) {\n        return (appTable);\n    }\n\n    struct shapeStruct {\n        bytes coordinateHash;\n    }\n    mapping(uint256 => shapeStruct) shapeTable;\n\n    function setShapeArray(uint256 farm_id, bytes memory hashArray)\n        public\n        payable\n        returns (bool)\n    {\n        shapeTable[farm_id].coordinateHash = hashArray;\n    }\n\n    function getShapeArray(uint256 farm_id) public view returns (bytes memory) {\n        return (shapeTable[farm_id].coordinateHash);\n    }\n}\n",
  "sourcePath": "/home/kottackal/Desktop/Farm_Certification/contracts/RiceCertificate.sol",
  "compiler": {
    "name": "solc",
    "version": "0.5.16+commit.9c3226ce.Emscripten.clang"
  },
  "schemaVersion": "3.4.3",
  "updatedAt": "2023-02-22T16:56:55.725Z",
  "networkType": "ethereum",
  "devdoc": {
    "methods": {
      "retApp()": {
        "details": "used to return the list of application for inspector and certifier",
        "return": "bytes32[] array"
      }
    }
  },
  "userdoc": {
    "methods": {}
  }
}